:10000000F3C02DC112C111C110C10FC10EC10DC16C
:100010000CC10BC10AC109C108C107C106C105C194
:1000200004C103C102C1F8C8C7C8CAC8D8C8E4C857
:10003000E9C8A9C9A8C9A7C9A6C9A5C9A4C9A3C906
:10004000A2C9A1C9A0C9E2C89EC9E3C8EAC86E6135
:100050006E00696E66001201100102000008B1FF17
:10006000DADA030001020301100361006C006D0085
:100070006500720069007300100373006500720070
:10008000700072006F0067001E0377007700770032
:100090002E006E00630072006D006E0074002E0072
:1000A0006F007200670004030904090243000201A3
:1000B00000C0320904000001020201000524001002
:1000C000010424020205240600010524010301079E
:1000D00005830308000A09040100020A0000000762
:1000E0000581020800080705010208000800407A9F
:1000F00010F35A00A0724E18090010A5D4E80000B1
:10010000E87648170000E40B54020000CA9A3B004E
:100110000000E1F505000080969800000040420FC5
:10012000000000A08601000000102700000000E889
:1001300003000000006400000000000A000000004E
:10014000000100000000002C76D888DC674F0823EF
:10015000DFC1DFAE59E1B1B796E5E3E453C63AE655
:1001600051997696E8E6C28426EB898C9B62ED4035
:100170007C6FFCEFBC9C9F40F2BAA56FA5F4900584
:100180005A2AF75C936B6CF9676DC11BFCE0E40DB8
:1001900047FEF520E6B500D0ED902E0300943577AC
:1001A000050080841E080000204E0A000000C80CD4
:1001B000333333330F986E12831141EF8D2114893D
:1001C0003BE65516CFFEE6DB18D1844B381BF77C97
:1001D0001D901DA4BBE424203284725E228100C9DC
:1001E000F124ECA1E53D270011241FBECFE5D4E0AA
:1001F000DEBFCDBF10E0A0E6B0E0E2E1F7E102C073
:1002000005900D92A037B107D9F712E0A0E7B0E052
:1002100001C01D92A43CB107E1F7F89489D7789406
:100220008DD792D7B4D8AFD471CAEACEA82FB92F40
:1002300080E090E041E050EA609530E009C02D9107
:1002400082279795879510F084279527305EC8F30D
:100250006F5FA8F30895EADF8D939D930895CF9380
:10026000CFB7CF93DF93C395829BE9F7829B0BC0F7
:10027000829B09C0829B07C0829B05C0829B03C0F2
:10028000829B01C08EC06F93C0919A02DD27CF552B
:10029000DD4F2F9365E5829B03C02F916F91E6CFD1
:1002A0000F931F934F9320E040E15F9300B30471DD
:1002B00002FB27F93F9350E03BE039C014714064E2
:1002C0002F77012F5F5F1EC0406810B314712F7726
:1002D00052501FC0406400B32F770471D1F15F5FAB
:1002E00000C023C0406210B32F77147191F15F5F9B
:1002F00000C025C004711027515012F45D5F00004A
:10030000115027952C3F10B3C8F6147101270150E6
:1003100027952C3FC8F64227499300B30471102754
:100320004F73115027952C3FA8F64695469510B36C
:10033000147179F00127015027952C3F98F66B5ADC
:1003400060F3315000B3B0F600C010E41ABF0027CC
:100350001CC03B503195C31BD04010E41ABF08812C
:10036000033C21F10B3411F1209198021981110FF6
:100370001213EDCF4A81441F093669F10D3211F095
:10038000013E29F74F7009F0042F00939F023F911F
:100390005F914F911F910F912F916F91CAB7C6FD39
:1003A00062CFDF91CF91CFBFCF91189520919F025F
:1003B000222369F310919D021123E9F53430EAF10B
:1003C00030939D022093990210919A023BE0311BD9
:1003D00030939A0232C000919D02013064F50AE523
:1003E0004F7049F43091600034FD28C000936000E4
:1003F000C1E8D2E027C0433049F030918C0234FD8F
:100400001DC000938C02CDE8D2E01CC03091B70231
:1004100034FD14C00093B702C8EBD2E013C0052727
:1004200010E000C0000002BB1AC0052710E0221F28
:100430001DC010E021C04AE502C032ED432FC4E1E7
:10044000D0E032E011B31461929A02B311BB54E1CF
:1004500020E865E320FF052702BB279517951C3F81
:10046000F0F66695B8F7B1F720FF052702BB279590
:1004700017951C3FD0F62795179517FF0527000005
:100480001C3F02BBB0F629913A9519F70B7E1091EB
:100490009E02110FC651D04002BB11F0109398027A
:1004A00010E41ABF046011B31B7E402F4B7E54E052
:1004B0005A95F1F702BB11BB42BB69CFA3E1B0E093
:1004C000E3E6F2E06BC77C015B018A01FC01178265
:1004D0001682838181FD03C050C3860105C0882434
:1004E0008394912C8C0E9D1EF7019381F50193FD51
:1004F000859193FF81915F01882309F43AC3853286
:1005000039F493FD859193FF81915F01853229F440
:10051000B70190E071D86801E0CF412C512C20E068
:100520002032A8F48B3261F028F4803251F083320B
:1005300071F40BC08D3239F0803349F4216028C04A
:100540002260246025C0286023C0206121C027FDCF
:1005500027C0382F30533A3078F426FF06C0FAE02F
:100560004F9E300D1124432E13C08AE0589E300D4B
:100570001124532E20620CC08E3221F426FDF9C2C4
:10058000206406C08C3611F4206802C0883641F41D
:10059000F50193FD859193FF81915F018111C0CF9A
:1005A000982F9554933018F42061805E06C0982FE0
:1005B0009556933008F091C12F7E26FD02C056E07B
:1005C000452E4FE3742E7222853619F4F0E47F2A0B
:1005D00007C0863619F420E8722A02C041104A94F6
:1005E00077FE07C03BE3341548F0342C339427E002
:1005F0000DC087E0841530F0242D07C027E03CE3D0
:10060000332E04C027E097E0492E312C680194E096
:10061000C90ED11CF8016081718182819381032D03
:10062000A401F3D68C0129812C8720FF02C023FF6F
:1006300007C071FC08C072FE09C080E2682E07C0C6
:10064000BDE26B2E04C0ABE26A2E01C0612C8C852A
:100650008C7089F1662011F084E001C083E085157B
:1006600010F0512C0AC0581A73FC07C0B70180E281
:1006700090E0C2D75A94D1F7F4CF662021F0B701A9
:10068000862D90E0B9D73C8533FD03C002E510E02C
:100690000BC00EE410E008C071108052B70190E06A
:1006A000ABD70F5F1F4F02C080E17822F801849121
:1006B0008111F2CF5BC277FE0EC0300E2C8524FF75
:1006C00004C08A81813309F43A9413144CF538E05C
:1006D000331548F12CC076FC2AC0242D30E02017B9
:1006E000310744F00C3F8FEF180724F090E8792A87
:1006F00001C04A94442049F0E2E0F0E0EC0FFD1F15
:10070000E40DF11D80818033A1F377FE10C0342CFD
:100710003394242D30E00217130744F4401A07C025
:100720003324339404C0F8E03F2E01C0412C77FEFF
:1007300007C0101611063CF498012F5F3F4F05C00B
:1007400025E030E002C021E030E0662011F02F5FAC
:100750003F4F442031F0442D50E04F5F5F4F240F56
:10076000351F452D50E02417350714F4521A01C0E7
:10077000512C872D897041F405C0B70180E290E0CB
:100780003BD75A945110F9CF662021F0B701862D3E
:1007900090E032D773FC08C005C0B70180E390E059
:1007A0002BD75A945110F9CF77FE51C0380117FF5B
:1007B00002C0612C712C1E861D86980123193109F7
:1007C000388B2F87180126183708280C391C642D00
:1007D00070E022273327261B370B3A8B298B3FEFFC
:1007E0006316730621F4B7018EE290E005D7061573
:1007F00017055CF02F8538892615370534F4ED850B
:10080000FE85E20DF31D818101C080E331E0631AB2
:1008100071082D853E852F5F3F4F3E872D872989A3
:100820003A896216730624F0B70190E0E5D6D7CF77
:100830006016710649F49A81963328F4953321F4B1
:100840003C8534FD01C081E3B70190E044C08A815A
:10085000813319F02C852F7E2C87B70190E0CCD600
:10086000411005C074FE14C085E490E013C0B701C8
:100870008EE290E0C1D6E2E06E2EF401E60DF11DAD
:100880006394B701808190E0B7D64A94B1F7EACF7C
:1008900085E690E0B701B0D617FD06C00115110539
:1008A00041F43C8534FF05C01195019511098DE295
:1008B00001C08BE2B70190E09FD680E303C08F5F59
:1008C0000A5011090A301105D4F7B70190E094D607
:1008D000B701C801C09690D649C1833631F083373D
:1008E00081F0833509F05AC023C0680182E0C80E48
:1008F000D11CF8018081898366246394712C840162
:1009000013C06801F2E0CF0ED11CF8010081118103
:1009100026FF03C0642D70E002C06FEF7FEFC801B7
:100920002B8B5FD63C012B896FE7462E422216C0E7
:100930006801F2E0CF0ED11CF8010081118126FF81
:1009400003C0642D70E002C06FEF7FEFC8012B8BF6
:1009500034D63C012B8950E8452E422A43FC1AC06C
:1009600005C0B70180E290E047D65A94852D90E00B
:1009700068167906B0F30EC0F80147FC859147FE72
:1009800081918F01B70190E037D651105A94F1E070
:100990006F1A71086114710479F7E8C0843611F098
:1009A000893659F5680127FF09C034E0C30ED11C10
:1009B000F80160817181828193810AC0F2E0CF0EDB
:1009C000D11CF80160817181882777FD8095982F6F
:1009D0004FE6742E722297FF09C09095809570950E
:1009E00061957F4F8F4F9F4FF0E87F2A2AE030E0DC
:1009F000A4012ED6682E681846C0853731F43FEE24
:100A0000732E72222AE030E024C099EF792E7222F0
:100A10008F36B9F020F4883509F0ABC00DC08037AF
:100A200021F0883709F0A5C002C020E1722A74FEC7
:100A30000BC034E0732A08C024FF09C086E0782A7E
:100A400006C028E030E005C020E130E002C020E12F
:100A500032E0680177FE09C094E0C90ED11CF801AC
:100A6000608171818281938108C0F2E0CF0ED11C38
:100A7000F8016081718180E090E0A401E9D5682EE1
:100A80006818FFE77F2276FE0BC0072D0E7F6414E7
:100A900050F474FE0AC072FC08C0072D0E7E05C01B
:100AA000162D072D03C0162D01C0142D04FF0CC0F8
:100AB000FE01E60DF11D8081803311F4097E08C02E
:100AC00002FF05C01E5F04C0802F867809F01F5FFB
:100AD00003FD11C000FF0CC0462C151548F4450C51
:100AE000411A152D05C0B70180E290E085D51F5F42
:100AF0001515C8F304C0151510F4511A01C0512C76
:100B000004FF0FC0B70180E390E076D502FF1CC060
:100B100001FF03C088E590E002C088E790E0B701DC
:100B20000CC0802F867881F001FD02C080E201C0F8
:100B30008BE207FD8DE2B70190E05ED505C0B701FD
:100B400080E390E059D54A946414C8F36A94F401A0
:100B5000E60DF11DB701808190E04ED56110F6CF12
:100B600005C0B70180E290E047D55A945110F9CF03
:100B7000B4CCF7012681378102C02FEF3FEFC901C6
:100B80006396E2E127C480E090E008951F93CF933D
:100B9000DF93162FEA01288124FF05C0298138E858
:100BA0002327298302C02AE528839E012E5F3F4F19
:100BB000DC01F901912F920F8D918193892F8E1B6A
:100BC0001816D4F3612FC90146DB1C5F1883DF912F
:100BD000CF911F9108954CE852E0D8DF08951F93FC
:100BE000CF93DF9360919D02635067FDBDC08091FC
:100BF0009A02CCE0D0E0C81BD109CF55DD4F8091DF
:100C00009902803118F4CE013AD2A8C08D3209F091
:100C100096C0683009F0A2C083EC809381028AE517
:100C200080936000109270002881822F807619F0E6
:100C3000CE0121D171C09A8110928A0289818111DD
:100C40000BC02F7119F481E080938A0210928B02FD
:100C50002AE832E082E05CC0853019F490939E026D
:100C600054C08630D1F58B81813041F486E590E027
:100C700090939C0280939B0282E12BC0823019F4F6
:100C8000CE01E4D026C0833019F5911108C086EA60
:100C900090E090939C0280939B0284E01AC0913074
:100CA00041F488E890E090939C0280939B028EE14F
:100CB00010C0923019F488E790E004C0933041F4FA
:100CC00088E690E090939C0280939B0280E101C0B3
:100CD00080E090E4909370001FC0883079F08930F4
:100CE00019F49093A00211C08A3059F08B3069F446
:100CF0008BE480938D028093B80207C020EA32E033
:100D000002C02AE832E081E003C02AE832E080E055
:100D100030939C0220939B028F3F39F4988197FD7A
:100D20008E8190E89093700007C09F81911104C05C
:100D30009E81981708F4892F809361000FC08091DD
:100D4000700087FF0BC0CE01CDD08F3F21F48EE124
:100D50008093600003C081111092610080919D0218
:100D6000181614F410929D028091600084FF4FC009
:100D7000809161008F3F09F44AC0182F893008F034
:100D800018E0811B809361008091810298E8892797
:100D900080938102112351F18091700087FF06C07A
:100DA000612F82E892E086D0182F1EC0E0919B024E
:100DB000F0919C0286FF0AC0A2E8B2E0812F8A0F60
:100DC00094919D9331968A13FBCF0AC0EF01A2E85C
:100DD000B2E0812F8A0F99919D93FE018A13FBCF78
:100DE000F0939C02E0939B02193058F4612F82E843
:100DF00092E031DA1C5F1C3041F08FEF809361008C
:100E000004C08FEF809361001EE11093600084E1C5
:100E100090B3947131F48150D9F710929E021092E0
:100E20009802DF91CF911F91089585B7826085BFA9
:100E30008BB780648BBF8BE480938D028093B80264
:100E40008AE580938C028093B7020895FC01838128
:100E5000813049F486E590E090939C0280939B0258
:100E60008091560008958AEA90E090939C028093C6
:100E70009B0283E40895FC012081322F30763032CA
:100E800009F014C0FC018181982F9052923080F0BB
:100E9000823239F480917100811103C082E0809325
:100EA000710027FD03C081E08093C30280E00895B4
:100EB0008FEF0895FC018091720080838091730010
:100EC00081838091740082838091750083838091F7
:100ED0007600848380917700858380917800868373
:100EE00087E00895FC018081809372008181809366
:100EF0007300828180937400838180937500848164
:100F000080937600958190937700268120937800D6
:100F1000933010F010927700813011F41092760027
:100F200081E00895CF93DF935ADE80919D0287FF81
:100F300011C080917B0090917C00809590952091CC
:100F4000790030917A00820F931F9927099714F046
:100F500010929D0280918C0284FF31C040917D00EF
:100F600050917E0080917F00909180009A01281B13
:100F7000390B211104C02091C302222301F120E08A
:100F800031E0281B390BE9012930310514F0C8E0A4
:100F9000D0E0240F351F33272C173D070CF4E9014F
:100FA0006C2F8F579F4F17DE80917F0090918000AC
:100FB0008C0F9D1F99279093800080937F00DF9175
:100FC000CF910895A1E0B0E0E7EEF7E0F7C103C0EC
:100FD0008983A8DF898120917D0030917E00A9015D
:100FE0004095509560917F0070918000460F571F8B
:100FF000442371F3F901EF57FF4F8083C901019634
:10100000992790937E0080937D002196E2E0F2C1C3
:1010100001C088DF2091790030917A0080917B00B7
:1010200090917C00821B930B882399F3F901EF5771
:10103000FE4F80812F5F3F4F332730937A002093FC
:10104000790008950F931F93CF93DF93EC018C01E8
:1010500004C0F80181918F01B5DFFE0101900020ED
:10106000E9F73197EC1BFD0BC8018C1B9D0B8E170C
:101070009F0778F3DF91CF911F910F910895A0E022
:10108000B0E0E4E4F8E08CC17C01462E512CC62E81
:10109000D12CAA24AA94B12C812C99249394C60112
:1010A0008519910960907B0070907C00950126194C
:1010B00037090091790010917A00E901C00FD11F22
:1010C000DD272C173D071CF4E401C619D7098C173E
:1010D0009D070CF4EC01B701650D711DAE01C30154
:1010E0008F579E4F75D25C0EC60DD71DDD27D0934E
:1010F0007C00C0937B004510D2CFC095D095C00F27
:10110000D11FDD2728971CF48FEF80939D02CDB768
:10111000DEB7E0E161C18FEF81BB2FEF84E39CE09C
:10112000215080409040E1F700C0000011BA0895BE
:1011300084E084BB8FEF85BBEEDF089510927100D1
:101140001092C30272DE0895C2988CE287BB80E5DC
:101150008DB981E08EB908958FB9779BFECF8FB19D
:101160000895CF92DF92EF92FF92CF9351DFC82E76
:10117000D12CE12CF12C4CDFC82F4ADF90E0A0E00D
:10118000B0E0772766277C2B6C297D298E299F2943
:10119000CF91FF90EF90DF90CF900895A0E0B0E066
:1011A000E3EDF8E0FDC0E82FF0E0E431F10508F0F0
:1011B000EAC0ED5EFF4F099486E004DF81E019C0CC
:1011C00086E000DF8FE3FEDE80E0FCDE8DE0FADE0D
:1011D000CDE1D0E080E0F6DE2197E1F7D4C086E0F3
:1011E000F1DE82E690E02EDF80E0ECDE80E0EADEF9
:1011F00080E0E8DE80E013C086E0E4DE8FEFE2DE30
:101200008FEF0DC086E0DEDE88E009C085E1DADE22
:1012100003C0FEDE883011F486E001C085E1D2DE35
:10122000B2C09FDF2B013C019CDF4B015C01AA9AFD
:10123000C298C0E0D1E046C075DEC0907B00D0907F
:101240007C008091790090917A009601281B390BDF
:10125000222391F39E01281B390BC20ED31EDD24DD
:101260002C153D050CF46901EE24D7FCE094FE2C0E
:101270004C145D046E047F0410F4730162014C1879
:101280005D086E087F0810C0F901EF57FE4F80819E
:101290002F5F3F4F30937A00209379005DDF31E07C
:1012A000C31AD108E108F1082091790030917A0041
:1012B000C114D104E104F10439F7332730937A00E3
:1012C00020937900411451046104710409F0B5CFF1
:1012D00086E078DECFEFD0E000E011E04CC022DE07
:1012E000C0907F00D090800080917D0090917E0022
:1012F0009C01209530952C0D3D1D222381F39E01EC
:10130000281B390BC20ED31EDD242C153D051CF401
:101310006801C81AD90AEE24D7FCE094FE2C8C147C
:101320009D04AE04BF0410F4750164018C189D087F
:10133000AE08BF0812C080E00FDFF301EF57FF4F88
:1013400080838FEF681A780A70927E0060927D0029
:1013500021E0C21AD108E108F10860907D00709088
:101360007E00C114D104E104F10429F777247092BE
:101370007E0060927D0081149104A104B10409F003
:10138000AFCFAA98C29ACDB7DEB7E0E125C085B34A
:10139000887F85BB3DDE90E001DF08952F923F926C
:1013A0004F925F926F927F928F929F92AF92BF9275
:1013B000CF92DF92EF92FF920F931F93CF93DF9321
:1013C000CDB7DEB7CA1BDB0B0FB6F894DEBF0FBE7E
:1013D000CDBF09942A88398848885F846E847D84CB
:1013E0008C849B84AA84B984C884DF80EE80FD80CD
:1013F0000C811B81AA81B981CE0FD11D0FB6F89443
:10140000DEBF0FBECDBFED010895283008F027E004
:101410003327DA01990F311D87FD91600096610530
:10142000710539F432602E5F3D9330E32A95E1F780
:1014300008959F3F30F080387105610509F03C5FE9
:101440003C5F3D93913008F08068911DDF93CF930E
:101450001F930F93FF92EF92192F987F9695E92F84
:1014600096959695E90FFF27E95BFE4F992733275D
:10147000EE24FF24A701E70105900894079428F4BF
:10148000360FE71EF81E491F511D660F771F881F74
:10149000991F0694A1F70590079428F4E70EF81E0B
:1014A000491F561FC11D770F881F991F661F06947D
:1014B000A1F70590079428F4F80E491F561FC71F7F
:1014C000D11D880F991F661F771F0694A1F70590FD
:1014D000079420F4490F561FC71FD81F990F661F86
:1014E000771F881F0694A9F784911095177041F013
:1014F000D695C79557954795F794E7941A95C1F7F0
:10150000EDEEF0E068941590159135916591959107
:1015100005907FE27395E118F10A430B560BC90B56
:10152000D009C0F7E10CF11E431F561FC91FD01D83
:101530007EF4703311F48A95E6CFE894015030F0D0
:10154000080F0AF40027021708F4202F2395022F12
:101550007A3328F079E37D932A95E9F710C07D93DB
:101560002A9589F606949795679537951795179458
:10157000E118F10A430B560BC90BD00998F02395DB
:101580007E9173957A3308F070E37C932013B8F75B
:101590007E9170617D9330F0839571E37D9370E36C
:1015A0002A95E1F71124EF90FF900F911F91CF91B1
:1015B000DF91992787FD90950895FC010590615072
:1015C00070400110D8F7809590958E0F9F1F089559
:1015D000FB01DC0102C001900D9241505040D8F750
:1015E0000895FC016150704001900110D8F780957A
:1015F00090958E0F9F1F08950F931F93CF93DF93A6
:101600008C01EB018B8181FD03C00FEF1FEF1AC02E
:1016100082FF0DC02E813F818C819D812817390763
:1016200064F4E881F9810193F983E88306C0E885D1
:10163000F985802F0995892B41F78E819F8101962D
:101640009F838E83C801DF91CF911F910F910895E1
:10165000FA01AA27283051F1203181F1E8946F93E3
:101660006E7F6E5F7F4F8F4F9F4FAF4FB1E03ED089
:10167000B4E03CD0670F781F891F9A1FA11D680F27
:10168000791F8A1F911DA11D6A0F711D811D911D5A
:10169000A11D20D009F468943F912AE0269F1124CF
:1016A0003019305D3193DEF6CF010895462F477033
:1016B000405D4193B3E00FD0C9F7F6CF462F4F708E
:1016C000405D4A3318F0495D31FD4052419302D0EC
:1016D000A9F7EACFB4E0A695979587957795679592
:1016E000BA95C9F700976105710508959B01AC0192
:1016F0000A2E06945795479537952795BA95C9F7B9
:10170000620F731F841F951FA01D08958BC5F89449
:02171000FFCF09
:101712005AFF754953502D73657270726F670000DE
:00000001FF
